:1000000012C02CC02BC02AC029C028C027C026C0BF
:1000100025C024C023C022C021C020C01FC01EC0D4
:100020001DC01CC01BC011241FBECFE5D4E0DEBF25
:10003000CDBF12E0A0E6B0E0E4E7FCE002C005902E
:100040000D92A434B107D9F712E0A4E4B2E001C0E4
:100050001D92AE3AB107E1F7BFD40AC6D1CF0895D9
:10006000949A90E087FF02C0959A01C09598969A5D
:1000700096989F5F983011F0880FF4CF0895949868
:1000800090E087FF02C0959A01C09598969A96983D
:100090009F5F983011F0880FF4CF0895CF93DF93CE
:1000A00080E8EDDF80E4EBDFC0E0D0E080E0D8DF87
:1000B000219681E0C83FD807C9F7DF91CF91089515
:1000C0001F93162F8058DBDF812F805CD8DF1F91B4
:1000D00008951F93CF93DF9390E08097EC01CC0FAE
:1000E000DD1FCC0FDD1FC80FD91FC656DF4F10E034
:1000F0008991B6DF1F5F1530D9F780E0B1DFDF915E
:10010000CF911F9108950F931F93CF93DF93062FE5
:10011000EC0110E003C08991DCDF1F5F1017D8F3FA
:10012000DF91CF911F910F9108959398939A81E257
:10013000A6DF86EAA4DF87E0A2DF83E1A0DF80E21A
:100140009EDF8CE09CDF08958CEF81BB9398939A9F
:10015000949A979A959896989298E7DF9FDF0895DA
:1001600080E021E092E018C0E23071F0E33018F452
:10017000E13089F405C0E33059F0E43061F408C09F
:10018000A65BBD4F9C9307C0A65BBD4F2C9303C0DD
:10019000A65BBD4FEC938F5FA82FB0E0FD01E45844
:1001A000FD4FE081EE2301F78150682F669530E026
:1001B000482F50E0832F90E0DC01A65BBD4F2C91CF
:1001C000FA01E81BF90BE65BFD4F80818C932083DD
:1001D0003F5F631778F7089521E128BB99BD88BD7B
:1001E0007BBD6ABD089528E228BB99BD88BD7BBD53
:1001F0006ABD089520E328BB99BD88BD7BBD6ABD5B
:10020000089529E028BB99BD88BD7BBD6ABD0895CE
:1002100018BA19BC18BC1BBC1ABC2BE530E040EA6C
:100220005FE003C0CA010197F1F7215030408FEF22
:100230002F3F3807B9F7089580E388BB8EE399E430
:1002400099BD88BD9BBD8ABD83B38B32E9F783B36B
:100250008E31E9F789E088BB23E230E040EA5FE0D5
:1002600003C0CA010197F1F7215030408FEF2F3FB3
:100270003807B9F718BA19BC18BC1BBC1ABC2CE259
:1002800031E040EA5FE003C0CA010197F1F7215075
:1002900030408FEF2F3F3807B9F7089589E088BBCA
:1002A0008EE399E499BD88BD9BBD8ABD83B3873039
:1002B000E9F783B38431E9F780E388BB23E230E0D8
:1002C00040EA5FE003C0CA010197F1F721503040D6
:1002D0008FEF2F3F3807B9F718BA19BC18BC1BBCF1
:1002E0001ABC2CE231E040EA5FE003C0CA0101978A
:1002F000F1F7215030408FEF2F3F3807B9F70895BD
:1003000070E32EE339E469E040EA5FE018C083B3AC
:10031000893110F468BB04C083B38A3128F078BBFC
:1003200039BD28BD3BBD2ABD8FE090E003C0FA0176
:100330003197F1F70197EFEF8F3F9E07C1F783B336
:10034000893128F383B38A3110F762DF089568E5B5
:1003500072E04BE151E4E8E283B390E049979C01FD
:10036000269FC001279F900D369F900D11249A0162
:10037000281B390BE8BB855E9E4B99BD88BD3BBDF4
:100380002ABD83B3843340F383B3873328F740DF38
:1003900081E188BB80E593EC99BD88BD9BBD8ABD9A
:1003A00024E130E040EA5FE003C0CA010197F1F7C1
:1003B000215030408FEF2F3F3807B9F781E188BBDC
:1003C0008BE191E499BD88BD9BBD8ABD2CE231E0F3
:1003D00040EA5FE003C0CA010197F1F721503040C5
:1003E0008FEF2F3F3807B9F713DF8ADF08951F9388
:1003F00088E288BB8BE191E499BD88BD9BBD8ABD35
:1004000083B38433E8F383B38733D0F718BA19BCC6
:1004100018BC1BBC1ABC81E188BB80E593EC99BD7C
:1004200088BD9BBD8ABD24E130E040EA5FE003C0A7
:10043000CA010197F1F7215030408FEF2F3F380765
:10044000B9F781E188BB8BE191E499BD88BD9BBD83
:100450008ABD2CE231E040EA5FE003C0CA010197A7
:10046000F1F7215030408FEF2F3F3807B9F718BA16
:1004700019BC18BC1BBC1ABC43DF2CE231E040EABB
:100480005FE003C0CA010197F1F7215030408FEFC0
:100490002F3F3807B9F710914902112391F41091B9
:1004A0004502143049F1133099F01630D9F0153067
:1004B00059F5C2DEE0914802F0E0E558FD4F83E0D7
:1004C00022C0113009F580914502843049F4B4DE30
:1004D000B3DEE0914802F0E0E558FD4F108314C010
:1004E000833019F4DBDEDADE08C0863019F4D6DE9C
:1004F000D5DE0AC0853041F49FDEE0914802F0E08D
:10050000E558FD4F82E080831F91089588E288BB03
:1005100080E593EC99BD88BD9BBD8ABD2EE130E09E
:1005200040EA5FE003C0CA010197F1F72150304073
:100530008FEF2F3F3807B9F718BA19BC18BC1BBC8E
:100540001ABC08951F9361E14BE151E4A8E5B2E0C4
:10055000E0EAFFE0819910C0D9DF28EC30E040EA02
:100560005FE003C0CA010197F1F7215030408FEFDF
:100570002F3F3807B9F7E2C083B390E00A9754F1F0
:1005800083B390E0899734F523B368BB83B390E0DD
:100590000597D4F083B390E08E97B4F4822F90E067
:1005A00049979C012A9FC0012B9F900D3A9F900D67
:1005B00011249A01281B390B68BB855E9E4B99BD9F
:1005C00088BD3BBD2ABDB0C068BB59BD48BD5BBD41
:1005D0004ABDAAC083B3833308F4A6C083B387336C
:1005E00008F0A2C028E230E040EA5FE003C0CA01A0
:1005F0000197F1F7215030408FEF2F3F3807B9F7BF
:1006000083B38433F1F083B3863319F451E040E0CF
:1006100005C083B3853321F450E041E0E0E014C02D
:1006200075DF28EC30E040EA5FE003C0CA010197C3
:10063000F1F7215030408FEF2F3F3807B9F717E01F
:100640007EC050E040E0E1E081E188BB8BE191E4D5
:1006500099BD88BD9BBD8ABD2EEB30E060EA7FE08E
:1006600003C0CB010197F1F7215030408FEF2F3FAE
:100670003807B9F7513039F483B3833321F45093F9
:10068000450211E03DC0413099F483B3833329F42E
:1006900082E08093450212E033C083B38F3040F094
:1006A00083B3843228F483E08093450213E028C0AA
:1006B000513059F483B38F3040F083B3843228F43F
:1006C00084E08093450214E01BC0E13099F483B3C9
:1006D0008F3040F083B3843228F485E08093450264
:1006E00015E00EC083B3833329F486E0809345027E
:1006F00016E006C083B3833311F417E001C010E0A5
:1007000005DF24E630E040EA5FE003C0CA0101975C
:10071000F1F7215030408FEF2F3F3807B9F70FC066
:10072000CF010197F1F702C029E130E021503040BC
:100730008FEF2F3F380709F40DCFF2CF18E0812F4C
:100740001F9108951F93CF93DF93EC01A7DC10E076
:1007500005C0805DBEDC8CE2BCDC1F5FFE01E10FEA
:10076000F11D80818823A9F7DF91CF911F91089512
:100770000F931F938C016AE070E037D2862F805D63
:10078000A8DCC8016AE070E030D2805DA2DC1F9175
:100790000F91089523B330E029513040C9010895E5
:1007A000CF93DF939C01EB0197FD10C0C49AC398CF
:1007B00068EE73E0681B790B882777FD8095982F8A
:1007C00022E330E040E050E0F1D10EC0C498C39A7B
:1007D000B901882777FD8095982F22E330E040E02B
:1007E00050E0E4D1605B7C4379BD68BDD7FD10C0AB
:1007F000C09AC59868EE73E06C1B7D0B882777FD67
:100800008095982F22E330E040E050E0CFD10EC039
:10081000C098C59ABE01882777FD8095982F22E35E
:1008200030E040E050E0C2D1605B7C437BBD6ABDFC
:10083000DF91CF91089520EA3FE004C0F90131979C
:10084000F1F701970097D1F7089583B3853050F001
:1008500083B38E3238F483B3815F65E031DC80E6A8
:1008600090E058C083B3833331F488E265E028DC3C
:1008700082E690E04FC083B3843331F488E265E0D0
:100880001FDC84E690E046C083B3853369F488E2D8
:1008900065E016DC86E690E061E035DC83E265E049
:1008A0000FDC88E690E036C083B3863369F488E2D3
:1008B00065E006DC86E690E061E025DC8DE265E03F
:1008C000FFDB8AE690E026C083B3883331F48DE005
:1008D00065E0F6DB8CE690E008C083B3893339F439
:1008E0008DE065E0EDDB87E790E06AE014C083E22D
:1008F00065E0E6DB86E690E061E005DC88E265E045
:10090000DFDB86E690E061E0FEDB8DE265E0D8DBD0
:1009100086E690E061E0F7DB80E065E0D1DB88E629
:1009200090E061E0F0DB88E264E0CADB82E890E01E
:1009300061E0E9DB8FE465E0C3DB8AE690E061E03B
:10094000E2DB0895CF93DF93A9DBC0EADFE024C0A8
:1009500087E060E0B5DB819904C084E890E063E063
:10096000D2DB8CE061E0ACDB88E890E064E0CBDBDC
:1009700083B390E0FDDE8DE890E064E0C4DB65DFEA
:1009800084E690E003C0FE013197F1F701972FEF65
:100990008F3F9207C1F782DB8099DACFDF91CF9149
:1009A00008958FE387BB18BAC198C29882EA8FBDB9
:1009B00081E18EBD80E593EC97BD86BD88989098C7
:1009C00014BAC2DBBFDF84E162E07ADB82E990E047
:1009D00067E099DB979808950F931F93CF93DF9368
:1009E000E0DF28EE33E040EA5FE003C0CA01019790
:1009F000F1F7215030408FEF2F3F3807B9F74EDB2A
:100A000080E060E05DDB11E002E0C0EADFE09ADD5B
:100A1000982F80934702883009F44DC0843039F113
:100A2000853038F48230A9F0833098F4813069F54C
:100A300007C0863071F0863060F0873031F51FC016
:100A4000FBDB80914802E82FF0E0E458FD4F008383
:100A500008C024DC80914802E82FF0E0E458FD4F04
:100A600010838F5F80934802109249020EC08091DC
:100A70004802E82FF0E0E458FD4F9083F2CFB7DC56
:100A8000809149028F5F8093490280E060E018DB2B
:100A90008CE792E057DE809147028093460288EC13
:100AA00090E003C0FE013197F1F701972FEF8F3FE0
:100AB0009207C1F7ACCFACDB53DB8AE492E042DEB5
:100AC000979A28EE33E040EA5FE003C0CA0101973D
:100AD000F1F7215030408FEF2F3F3807B9F737DC5F
:100AE00080914A02823059F0833018F4813059F4F1
:100AF00009C0833019F0843031F403C0CFDBCEDB82
:100B000002C09ADB99DBCBE4D2E00DC097981ADDE6
:100B1000979A8881813019F0823021F402C0BEDBBF
:100B200001C08ADB21968881882381F70BDD28ECC0
:100B300030E040EA5FE003C0CA010197F1F72150BD
:100B400030408FEF2F3F3807B9F79798C0EADFE0C2
:100B50005FDB84E690E003C0FE013197F1F7019777
:100B60002FEF8F3F9207C1F7F3CF0F931F93DF93C0
:100B7000CF93CDB7DEB72F970FB6F894DEBF0FBE79
:100B8000CDBF8E010F5F1F4FB8014AE050E041D04A
:100B9000C80164E0B8DA2F960FB6F894DEBF0FBE36
:100BA000CDBFCF91DF911F910F910895629FD0012A
:100BB000739FF001829FE00DF11D649FE00DF11D18
:100BC000929FF00D839FF00D749FF00D659FF00DC7
:100BD0009927729FB00DE11DF91F639FB00DE11DB4
:100BE000F91FBD01CF0111240895AA1BBB1B51E1C0
:100BF00007C0AA1FBB1FA617B70710F0A61BB70B8D
:100C0000881F991F5A95A9F780959095BC01CD0131
:100C10000895FB019F01E8944230BCF04532ACF4EA
:100C20004A3029F497FB1EF4909581959F4F642FCD
:100C30007727DBDF805D8A330CF0895D8193CB0100
:100C40000097A9F716F45DE251931082C90100C024
:100C5000DC01FC01672F71917723E1F7329704C023
:100C60007C916D9370836291AE17BF07C8F30895AE
:040C7000F894FFCF26
:100C74005E002000540023003C003E004D454D4FD3
:100C840020424C41434B004D454D4F205748495459
:100C940045005F00424F58003E3E3E2000203C3C51
:100CA4003C0052554E4E494E4700000000000000E3
:100CB400002F00000007000700147F147F14242A6B
:100CC4007F2A126264081323364955225000050313
:100CD4000000001C2241000041221C0014083E08B0
:100CE4001408083E08080000A06000080808080866
:100CF400006060000020100804023E5149453E0097
:100D0400427F400042615149462141454B3118140C
:100D1400127F1027454545393C4A4949300171093C
:100D240005033649494936064949291E0036360025
:100D34000000563600000814224100141414141440
:100D440000412214080201510906324959513E7CDE
:100D54001211127C7F494949363E414141227F416B
:100D640041221C7F494949417F090909013E414902
:100D7400497A7F0808087F00417F41002040413FB5
:100D8400017F081422417F404040407F020C027FD3
:100D94007F0408107F3E4141413E7F090909063E18
:100DA4004151215E7F0919294646494949310101CA
:100DB4007F01013F4040403F1F2040201F3F4038FB
:100DC400403F6314081463070870080761514945DC
:100DD40043007F414100552A552A550041417F0077
:100DE400040201020440404040400001020400208B
:100DF400545454787F484444383844444420384454
:100E040044487F3854545418087E09010218A4A495
:100E1400A47C7F0804047800447D40004080847DE5
:100E2400007F1028440000417F40007C04180478AF
:100E34007C080404783844444438FC2424241818D6
:100E4400242418FC7C080404084854545420043F07
:040E540044402000F6
:00000001FF
